:03000000020252A7
:0C025200787FE4F6D8FD75810702029960
:0C056900410001004100020141000000BF
:10043800120576900001E004F0A3E004F0900001BA
:10044800E0D394094002E4F0900002E0D394044021
:10045800037401F0900002E0FF900001E0FD120536
:10046800597D017F321200267D017F321200267DE0
:0F047800017F321200267D017F3212002680B4F0
:030023000204CB09
:0804CB00C0E0C083C082C0D074
:1004D30030981DC298E599B47F11900000E004F0B4
:1004E300E0B4050CE4F075C7608005900000E4F00B
:0904F300D0D0D082D083D0E032D9
:0305760002054239
:10036400900003EFF0538E7F5389F0438901E0FF3F
:100374007E007C037DE8120172C374FF9FFF74FF4B
:100384009EFEE49400FDE49400FCE4FB7A01F9F899
:10039400120487AF038F8A900003E0FF7E007C0382
:1003A4007DE8120172C374FF9FFF74FF9EFEE49404
:1003B40000FDE49400FCE4FB7A01F9F81204878F51
:0A03C4008CC28DD2A9D2AFD28C22D8
:1003CE00900004EFF0538EBF53890F438910E0FF66
:1003DE007E007C037DE8120172C374FF9FFF74FFE1
:1003EE009EFEE49400FDE49400FCE4FB7A01F9F82F
:1003FE00120487AF038F8B900004E0FF7E007C0316
:10040E007DE8120172C374FF9FFF74FF9EFEE49499
:10041E0000FDE49400FCE4FB7A01F9F81204878FE6
:0A042E008DC28FD2ABD2AFD28E2266
:1004FC00AB07E4F5D8F5E9F5F9F5D9EBFF7E007C0F
:10050C00037DE81201728FEAEEF5FA75DA49D2DE54
:03051C00D2AF2239
:10051F00AB07E4F5D8F5E9F5F9F5D9EBFF7E007CEB
:10052F00037DE81201728FEBEEF5FB75DB49D2DE2E
:03053F00D2AF2216
:10002600900005EFF0ED24FE70030200B314700398
:1000360002012014700302014924036003020171C6
:10004600538E7F5389F0438901900005E0FF7E00BF
:100056007C037DE8120172C374FF9FFF74FF9EFE4E
:10006600E49400FDE49400FCE4FB7A01F9F8120440
:1000760087AF038F8A900005E0FF7E007C037DE852
:10008600120172C374FF9FFF74FF9EFEE49400FD8D
:10009600E49400FCE4FB7A01F9F81204878F8CC221
:1000A6008DC2A9D28C308DFDC28CC28D22538EBFDB
:1000B60053890F438910900005E0FF7E007C037D85
:1000C600E8120172C374FF9FFF74FF9EFEE4940062
:1000D600FDE49400FCE4FB7A01F9F8120487AF030F
:1000E6008F8B900005E0FF7E007C037DE812017295
:1000F600C374FF9FFF74FF9EFEE49400FDE494002A
:10010600FCE4FB7A01F9F81204878F8DC28FC2AB2B
:10011600D28E308FFDC28EC28F22E4F5D8F5E9F576
:10012600F9F5D9900005E0FF7E007C037DE8120119
:10013600728FEAEEF5FA75DA48D2DE30D8FDC2DE05
:10014600C2D822E4F5D8F5E9F5F9F5D9900005E02D
:10015600FF7E007C037DE81201728FEBEEF5FB75E6
:0C016600DB48D2DE30D9FDC2DEC2D92257
:1002DE00AC07ED24FE602914604414605D240370A5
:1002EE0074538E7F5389F0438902C374FF9CF58A41
:1002FE00F58CC28DC2A9D28C308DFDC28CC28D22DE
:10030E00538EBF53890F438920ECF404F58BF58D82
:10031E00C28FC2ABD28E308FFDC28EC28F22E4F559
:10032E00D8F5E9F5F9F5D9ECF5EAE4F5FA75DA4818
:10033E00D2DE30D8FDC2DEC2D822E4F5D8F5E9F51A
:10034E00F9F5D9ECF5EBE4F5FB75DB48D2DE30D9E7
:06035E00FDC2DEC2D9223F
:1005420053877F759850538EFB759CE8438E014309
:070552008E10D2ACD2AF22E3
:10000300C0F9A4B0999282F88090004079343019F5
:0E001300120278001000010204081020408044
:10055900EF90001893F4F5A0ED90000393F5902225
:10025E00020438E493A3F8E493A34003F68001F27A
:10026E0008DFF48029E493A3F85407240CC8C333A1
:10027E00C4540F4420C8834004F456800146F6DF70
:10028E00E4800B0102040810204080900569E47E92
:10029E00019360BCA3FF543F30E509541FFEE49365
:1002AE00A360010ECF54C025E060A840B8E493A32C
:1002BE00FAE493A3F8E493A3C8C582C8CAC583CA57
:1002CE00F0A3C8C582C8CAC583CADFE9DEE780BE0F
:010575000085
:10017200EF8DF0A4A8F0CF8CF0A428CE8DF0A42EA1
:02018200FE225B
:10048700C2D5E830E70FB2D5E4C39BFBE49AFAE4A0
:1004970099F9E498F8EC30E717B2D51204BD1201C8
:1004A700C0E4C39BFBE49AFAE499F9E498F8800363
:1004B7001201C030D50DE4C39FFFE49EFEE49DFD0D
:0404C700E49CFC2293
:1001840075F008758200EF2FFFEE33FECD33CDCC32
:1001940033CCC58233C5829BED9AEC99E5829840B5
:1001A4000CF582EE9BFEED9AFDEC99FC0FD5F0D692
:1001B400E4CEFBE4CDFAE4CCF9A88222B800C1B9BC
:1001C4000059BA002DEC8BF084CFCECDFCE5F0CBFA
:1001D400F97818EF2FFFEE33FEED33FDEC33FCEB33
:1001E40033FB10D703994004EB99FB0FD8E5E4F9EE
:1001F400FA227818EF2FFFEE33FEED33FDEC33FCDB
:10020400C933C910D7059BE99A4007EC9BFCE99ACE
:10021400F90FD8E0E4C9FAE4CCFB2275F010EF2F13
:10022400FFEE33FEED33FDCC33CCC833C810D70713
:100234009BEC9AE899400AED9BFDEC9AFCE899F84E
:0E0244000FD5F0DAE4CDFBE4CCFAE4C8F922E1
:00000001FF
