:0200030007D420
:020005000820D1
:0200070007B53B
:02000900080AE3
:03000000020702F2
:0C070200787FE4F6D8FD758135020749C8
:03000B0002036F7E
:10036A00C2AF80FE3212036E85D00B75D008AAE0A8
:10037A00C28CE58A24F7F58AE58C34D8F58CD28CC0
:10038A00EC2418F8E6BC030274FFC39581B4140088
:10039A0040CE7904780F16E608700BC2AFE630E15A
:1003AA00034418F6D2AF08D9EDEA8BD030090122FE
:1003BA00D50DFCC0E0C0D0C0F0C083C082C000C070
:1003CA0001C002C003C004C005C006C007E50C2373
:1003DA002410F87440C2AF46F6D2AFD209E50CFF3A
:1003EA00232410F80F0808BF04047F007810E630B1
:1003FA00E4F200E50CC39F5020050C7417250CF895
:10040A00E6FDA68108E6AE0CBE030274FFCDF8E84D
:10041A006D60E008E6C0E080F6E50CD39F4027E572
:10042A000C2418F8E6AE0CBE030274FFFD18E6CDE4
:10043A00F8E5816D6006D0E0F61880F5E50C241722
:10044A00C8F6150C80D3750D05E50C232410F87F2A
:10045A0004C2AFE610E61E30E00310E20C7F003063
:05046A00E10730E3048E
:10046F007F0854F4547CC6D2AF54804207C209228D
:10047F00F6D2AFD007D006D005D004D003D002D02B
:10048F0001D000D082D083D0F0D0D0D0E0C20922EA
:10049F007817A68174036006FF0876FFDFFB7F04E1
:1004AF00E4780FF608F608DFFA781076309000033C
:1004BF00740193C0E0E493C0E0750D0543890175A5
:0D04CF008AF0758CD8D28CD2AFD2A922034E
:0E082E000A48656C6C6F20576F726C640A008C
:03083C00010E01A9
:1007F10053877F75985053890F438920D299758B00
:09080100FD758DFDC2ABD28E2203
:1007D4007F011204DC7F021204DC7F031204DC12AA
:0D07E40007F1C290C291C292E4FF020565C8
:0E082000E4FBFA7D0A7F80120615B29080F28A
:1007B500050EE50ED3940A40087F031205EE750E6B
:0F07C50001E4FBFA7D0A7F02120615B29180E172
:10080A00E4FBFAFD7F01120615B2927BFF7A0879A2
:06081A002E12007080EABE
:1004DC00EFD3940340037FFF2274102F2FF8E620F4
:1004EC00E5F4C2AFE64430F6D2AFAE0CEEC39F508B
:1004FC00210E74172EF8E6F908E618BE030274FFF5
:10050C00FDED69600909E71919F7090980F3161659
:10051C0080DAEED39F400405810581EED39F402203
:10052C0074172EF808E6F9EEB50C02A98118060628
:10053C00E6FDED6960091919E70909F71980F31E41
:10054C0080D9EF2417F8E604F8EF2F0490000393FA
:09055C00F608EF2F93F67F002250
:10056500EFD3940340037FFF22EF232410F8E630F6
:10057500E5F4C2AFE6548CF6D2AFE50CB5070A74C4
:10058500172FF8E6F5810203E5502E74182FF8E6CB
:10059500BF030274FFFD18E6F974172FF8FBE6FC9C
:1005A500E96C6008A805E7F61D1980F4A803A605FF
:1005B5001FE50CB507E37F002274182FF8E6FD1838
:1005C50086010F74172FF8A601088604E50CB507F8
:1005D50002AC81ED6C60080D09A805E6F780F4E52D
:0905E5000CB507DE89817F0022BC
:1005EE00EFD3940340037FFF22EF232410F8C2AF12
:1005FE00E630E50530E002D2E4D2E2C6D2AF7F00AB
:07060E0030E2010F0203B905
:100615008FF0E4FFFEE50C23240FF8C2A930F70D97
:100625007F08E6600B2DF660325030800730F1060A
:10063500EDF660277E020830F010C2AFE610E72520
:100645000E30E20CD2AF7F048014C2AFE610E7157E
:1006550054EC4EF6D2AFD2A90203E57F0808EF4469
:0F06650083F4C2AF56C6D2AFD2A954804FFF2242
:10070E0002049FE493A3F8E493A34003F68001F25E
:10071E0008DFF48029E493A3F85407240CC8C333EC
:10072E00C4540F4420C8834004F456800146F6DFBB
:10073E00E4800B010204081020408090083CE47E07
:10074E00019360BCA3FF543F30E509541FFEE493B0
:10075E00A360010ECF54C025E060A840B8E493A377
:10076E00FAE493A3F8E493A3C8C582C8CAC583CAA2
:10077E00F0A3C8C582C8CAC583CADFE9DEE780BE5A
:01083F0000B8
:10000E00E5312425F8E605312278223007027825DD
:10001E00E475F0011206CC0206742000EB7F2ED29E
:10002E00008018EF540F2490D43440D4FF30040BCA
:10003E00EF24BFB41A0050032461FFE532600215AD
:10004E00320535E5357002053430070D7822E4753A
:10005E00F0011206CCEF0206BA02078E7403D20725
:10006E008003E4C207F5318B228A238924E4F5321A
:10007E00F534F535E53260077F2012004980F575BD
:10008E0033FFC201C200C202C203C205C206C208C9
:10009E00120017FF700D3007057F0012005AAF35A2
:1000AE00AE3422B4255FC2D5C204120017FF24D08D
:1000BE00B40A00501A75F00A783230D50508B6FF2A
:1000CE000106C6A426F620D5047002D20380D924D8
:1000DE00CFB41A00EF5004C2E5D20402025AD20184
:1000EE0080C6D20080C0D20280BCD2D580BAD205E2
:1000FE0080B47F201200492002077401B5320040FF
:10010E00F112000EFF120049020082D208D20680C0
:10011E009512000EFB12000EFA12000EF94A4B70E9
:10012E0006792B7A037BFF20022EE532602A7E00B1
:10013E008E8275830012068D60060EEE653370F0AA
:10014E00C2D5EBC0E0EAC0E0E9C0E0EE1202A1D0F9
:10015E00E0F9D0E0FAD0E0FB120674FF60AAEBC023
:10016E00E0EAC0E0E9C0E0120049D0E02401F9D095
:10017E00E03400FAD0E0FBE5330460DCD533D980FF
:10018E00877BFF7A02799DD202809C79108002795A
:10019E0008C206C2088008D2D5790A8004790AC23C
:1001AE00D5E533047002F533E4FAFDFEFF12000EBE
:1001BE00FC7B0820011312000EFD7B1030000A128A
:1001CE00000EFE12000EFF7B20EC3382D592D5502E
:1001DE0013C3E43000069FFFE49EFEE42001039D5E
:1001EE00FDE49CFCE4CBF8C201EC700CCFCECDCC80
:1001FE00E824F8F870F38017C3EF33FFEE33FEED0B
:10020E0033FDEC33FCEB33FB994002FB0FD8E9EBEB
:10021E00300105F8D0E0C448B201C0E00AEC4D4E02
:10022E004F78207B0070C2EAB5330040BCC0E012AC
:10023E0002A3D0F0D0E0200104C4C0E0C4B201C0DB
:10024E00F0120032D0F0D5F0EB0200821206DC0183
:10025E001F5301995800F04C00EC42019D4F01A52F
:0F026E004401A54901054301AB55018F46018F9E
:10027D0045018F47034B5000F42D00F82E011B2B29
:10028D0000FC2301192003342A00B4480000011397
:10029D003F3F3F00790AA2D5200314300509B9105C
:1002AD00020404B9080104A2D5200602500104205D
:1002BD0002689202B532005034C0E07F203003193D
:1002CD007F30A20272067205500F1202FAC202C2EC
:1002DD0006C205C2087F30800F300503E9C0E01269
:1002ED000049300503D0E0F9D0E0B532CC30051728
:1002FD007F30B9100C1200497F583004077F788089
:10030D0003B908031200493002057F2D0200497F11
:10031D00202008F87F2B2006F322920280CF286E32
:10032D00756C6C2900D20112000E3001F8C20178F3
:10033D003230D50108F60200B42D50434958120051
:10034D000E2403B405004001E49003469312003AD5
:0D035D00743A12003AD2037532040201997D
:10067400BB010689828A83E0225002E722BBFE0284
:09068400E32289828A83E49322B7
:10068D00BB010CE58229F582E5833AF583E0225022
:10069D0006E92582F8E622BBFE06E92582F8E2226C
:0D06AD00E58229F582E5833AF583E4932286
:1006BA00BB010689828A83F0225002F722BBFE011F
:0206CA00F32219
:1006CC00FAE6FB0808E6F925F0F618E6CA3AF6222F
:1006DC00D083D082F8E4937012740193700DA3A3AD
:1006EC0093F8740193F5828883E4737402936860C1
:0606FC00EFA3A3A380DFC1
:10078E00EFB40A07740D120799740A309811A899DC
:10079E00B8130CC2983098FDA899C298B811F630CB
:0707AE0099FDC299F59922A3
:00000001FF
