:03000000020252A7
:0C025200787FE4F6D8FD75810702029960
:04053E004100000078
:100521001205377D017F321200267D027F051205FB
:060531000A43C11080ED39
:0300230002047C58
:08047C00C0E0C083C082C0D0C3
:1004840030981DC298E599B47F11900000E004F003
:10049400E0B4050CE4F075C7608005900000E4F05A
:0904A400D0D0D082D083D0E03228
:070537001204F375C1382224
:10036400900001EFF0538E7F5389F0438901E0FF41
:100374007E007C037DE8120172C374FF9FFF74FF4B
:100384009EFEE49400FDE49400FCE4FB7A01F9F899
:10039400120438AF038F8A900001E0FF7E007C03D3
:1003A4007DE8120172C374FF9FFF74FF9EFEE49404
:1003B40000FDE49400FCE4FB7A01F9F81204388FA0
:0A03C4008CC28DD2A9D2AFD28C22D8
:1003CE00900002EFF0538EBF53890F438910E0FF68
:1003DE007E007C037DE8120172C374FF9FFF74FFE1
:1003EE009EFEE49400FDE49400FCE4FB7A01F9F82F
:1003FE00120438AF038F8B900002E0FF7E007C0367
:10040E007DE8120172C374FF9FFF74FF9EFEE49499
:10041E0000FDE49400FCE4FB7A01F9F81204388F35
:0A042E008DC28FD2ABD2AFD28E2266
:1004AD00AB07E4F5D8F5E9F5F9F5D9EBFF7E007C5E
:1004BD00037DE81201728FEAEEF5FA75DA49D2DEA4
:0304CD00D2AF2289
:1004D000AB07E4F5D8F5E9F5F9F5D9EBFF7E007C3B
:1004E000037DE81201728FEBEEF5FB75DB49D2DE7E
:0304F000D2AF2266
:10002600900003EFF0ED24FE70030200B31470039A
:1000360002012014700302014924036003020171C6
:10004600538E7F5389F0438901900003E0FF7E00C1
:100056007C037DE8120172C374FF9FFF74FF9EFE4E
:10006600E49400FDE49400FCE4FB7A01F9F8120440
:1000760038AF038F8A900003E0FF7E007C037DE8A3
:10008600120172C374FF9FFF74FF9EFEE49400FD8D
:10009600E49400FCE4FB7A01F9F81204388F8CC270
:1000A6008DC2A9D28C308DFDC28CC28D22538EBFDB
:1000B60053890F438910900003E0FF7E007C037D87
:1000C600E8120172C374FF9FFF74FF9EFEE4940062
:1000D600FDE49400FCE4FB7A01F9F8120438AF035E
:1000E6008F8B900003E0FF7E007C037DE812017297
:1000F600C374FF9FFF74FF9EFEE49400FDE494002A
:10010600FCE4FB7A01F9F81204388F8DC28FC2AB7A
:10011600D28E308FFDC28EC28F22E4F5D8F5E9F576
:10012600F9F5D9900003E0FF7E007C037DE812011B
:10013600728FEAEEF5FA75DA48D2DE30D8FDC2DE05
:10014600C2D822E4F5D8F5E9F5F9F5D9900003E02F
:10015600FF7E007C037DE81201728FEBEEF5FB75E6
:0C016600DB48D2DE30D9FDC2DEC2D92257
:1002DE00AC07ED24FE602914604414605D240370A5
:1002EE0074538E7F5389F0438902C374FF9CF58A41
:1002FE00F58CC28DC2A9D28C308DFDC28CC28D22DE
:10030E00538EBF53890F438920ECF404F58BF58D82
:10031E00C28FC2ABD28E308FFDC28EC28F22E4F559
:10032E00D8F5E9F5F9F5D9ECF5EAE4F5FA75DA4818
:10033E00D2DE30D8FDC2DEC2D822E4F5D8F5E9F51A
:10034E00F9F5D9ECF5EBE4F5FB75DB48D2DE30D9E7
:06035E00FDC2DEC2D9223F
:1004F30053877F759850538EFB759CE8438E014359
:070503008E10D2ACD2AF2232
:10000300C0F9A4B0999282F88090004079343019F5
:0E001300120278001000010204081020408044
:10050A00EF90001893F590D2A1C2A1ED9000039349
:07051A00F590D2A0C2A0225F
:10025E00020521E493A3F8E493A34003F68001F290
:10026E0008DFF48029E493A3F85407240CC8C333A1
:10027E00C4540F4420C8834004F456800146F6DF70
:10028E00E4800B010204081020408090053EE47EBD
:10029E00019360BCA3FF543F30E509541FFEE49365
:1002AE00A360010ECF54C025E060A840B8E493A32C
:1002BE00FAE493A3F8E493A3C8C582C8CAC583CA57
:1002CE00F0A3C8C582C8CAC583CADFE9DEE780BE0F
:0105420000B8
:10017200EF8DF0A4A8F0CF8CF0A428CE8DF0A42EA1
:02018200FE225B
:10043800C2D5E830E70FB2D5E4C39BFBE49AFAE4EF
:1004480099F9E498F8EC30E717B2D512046E120166
:10045800C0E4C39BFBE49AFAE499F9E498F88003B2
:100468001201C030D50DE4C39FFFE49EFEE49DFD5C
:04047800E49CFC22E2
:1001840075F008758200EF2FFFEE33FECD33CDCC32
:1001940033CCC58233C5829BED9AEC99E5829840B5
:1001A4000CF582EE9BFEED9AFDEC99FC0FD5F0D692
:1001B400E4CEFBE4CDFAE4CCF9A88222B800C1B9BC
:1001C4000059BA002DEC8BF084CFCECDFCE5F0CBFA
:1001D400F97818EF2FFFEE33FEED33FDEC33FCEB33
:1001E40033FB10D703994004EB99FB0FD8E5E4F9EE
:1001F400FA227818EF2FFFEE33FEED33FDEC33FCDB
:10020400C933C910D7059BE99A4007EC9BFCE99ACE
:10021400F90FD8E0E4C9FAE4CCFB2275F010EF2F13
:10022400FFEE33FEED33FDCC33CCC833C810D70713
:100234009BEC9AE899400AED9BFDEC9AFCE899F84E
:0E0244000FD5F0DAE4CDFBE4CCFAE4C8F922E1
:00000001FF
